:020000040000FA
:060000000A128A1110280B
:10000800FE00030EF2000A08F300831203137F08B0
:10001800F4000A168A156F2C0A128A111328831302
:10002800CB30FD001B30FE001E30FF00BF308400C7
:100038000A168A1577230A128A11831790308400CA
:10004800C8300A128A1500200A128A118313A030B8
:100058008400BF300A128A1500200A128A11F5019D
:10006800F601F701F80183010A168A15372BFF00FC
:1000780000308A007F0882074028412842280A1653
:100088008A15FD2D0A128A1551290A168A110C2E75
:100098000A168A11D72BFF0000308A007F088207D2
:1000A80054280A168A15E62A831203133108803960
:1000B800B6003608BB003108B6003607B700370867
:1000C800C100B01F682869286B2841146B284108B3
:1000D80003196F2870288028410A031D7428752881
:1000E8007E280030B1000030B0000030AF00003092
:1000F800AE007E28B01789280030B1000030B0006B
:100108000030AF000030AE00892835088039B600CD
:100118003608BB063508B6003607B7003708BC00F6
:10012800B41F972898289A283C149A283C08031941
:100138009E289F28AF283C0A031DA328A428AD2881
:100148000030B5000030B4000030B3000030B20019
:10015800AD28B417B8280030B5000030B40000301E
:10016800B3000030B200B8283C080319BC28BD28E9
:10017800C3284108031DC128C228CD28C328003040
:10018800B1000030B0000030AF000030AE00CC2B22
:10019800CC2B2E08B6003608A00034080A128A11A3
:1001A800D4270A128A11831203132108C7002008D2
:1001B800C6004608B600B701B801B9013908C00041
:1001C8003808BF003708BE003608BD004708B6002B
:1001D800B701B801B9013908C5003808C4003708A3
:1001E800C3003608C2002F08B6003608A00033083E
:1001F8000A128A11D4270A128A11831203132108BA
:10020800C7002008C6004608B600B701B801B90102
:100218003608BD07370803110318013E03191529CD
:10022800BE07380803110318013E03191C29BF072C
:10023800390803110318013E03192329C007470889
:10024800B600B701B801B9013608C207370803116B
:100258000318013E03193129C3073808031103188D
:10026800013E03193829C407390803110318013E50
:1002780003193F29C5073008B6003608A000320820
:100288000A128A11D4270A128A1183120313210829
:10029800C7002008C6004608B600B701B801B90172
:1002A8003608BD07370803110318013E03195D29F5
:1002B800BE07380803110318013E03196429BF0754
:1002C800390803110318013E03196B29C0074708B1
:1002D800B600B701B801B9013608C20737080311DB
:1002E8000318013E03197929C307380803110318B5
:1002F800013E03198029C407390803110318013E78
:1003080003198729C5070830B6000310BD0DBE0DB7
:10031800BF0DC00DB60B89292F08B6003608A000FE
:1003280032080A128A11D4270A128A118312031377
:100338002108C7002008C6004608B6004708B700CD
:10034800B801B9013608BD07370803110318013E83
:100358000319AF29BE07380803110318013E031912
:10036800B629BF07390803110318013E0319BD292F
:10037800C0072E08B6003608A00033080A128A11F2
:10038800D4270A128A11831203132108C7002008F0
:10039800C6004608B6004708B700B801B9013608D4
:1003A800BD07370803110318013E0319DC29BE07EE
:1003B800380803110318013E0319E329BF07390858
:1003C80003110318013E0319EA29C0070830B600D3
:1003D8000310BD0DBE0DBF0DC00DB60BEC292E08C8
:1003E800B6003608A00032080A128A11D4270A1269
:1003F8008A11831203132108C7002008C600460883
:10040800B6004708B700B801B9013608BD07370874
:1004180003110318013E0319122ABE0738080311F5
:100428000318013E0319192ABF07390803110318D5
:10043800013E0319202AC0072F08B6003608A0007D
:1004480034080A128A11D4270A128A118312031354
:100458002108C7002008C6004608B6004708B700AC
:10046800B801B9013608C207370803110318013E5D
:1004780003193F2AC307380803110318013E03195B
:10048800462AC407390803110318013E03194D2AE7
:10049800C5073008B6003608A00033080A128A11CA
:1004A800D4270A128A11831203132108C7002008CF
:1004B800C6004608B6004708B700B801B9013608B3
:1004C800C207370803110318013E03196C2AC30732
:1004D800380803110318013E0319732AC4073908A1
:1004E80003110318013E03197A2AC5073008B6001C
:1004F8003608A00034080A128A11D4270A128A1171
:10050800831203132108C7002008C6004608B60056
:100518004708B700B801B90108300310B60DB70D88
:10052800B80DB90DFF3E031D912A3608C2073708DA
:1005380003110318013E0319A22AC307380803113F
:100548000318013E0319A92AC4073908031103181F
:10055800013E0319B02AC5073D08B6003E08B7009A
:100568003F08B8004008B90018300310B90CB80C9F
:10057800B70CB60CFF3E031DB92A3608C207370868
:1005880003110318013E0319CA2AC30738080311C7
:100598000318013E0319D12AC407390803110318A7
:1005A800013E0319D82AC5070830B6000310BD0D4F
:1005B800BE0DBF0DC00DB60BDA2A41083C07B600C8
:1005C800B701B70D3608823EC60037080318013E4A
:1005D800FF3EC7000E2B0130B6000310C20DC30D3D
:1005E800C40DC50DB60BF12AC01FFB2AFC2AFE2A32
:1005F8004214FE2A0130B6000310BD0DBE0DBF0D1A
:10060800C00DB60B002BFF30C6070318C70AFF3012
:10061800C7070E2BC41F112B122BEF2A132BBC015B
:10062800C01F172B182B382BFF303D05B600FF30A5
:100638003E05B700FF303F05B8007F304005B900E0
:10064800390838043704360403192B2B2C2B2F2B8D
:10065800BC01BC0A382B421C322B332B382BBC0173
:10066800BC0A382B382B382B3C0803193C2B3D2B64
:10067800702B0130C207003003180130C307003067
:1006880003180130C407003003180130C507451CA2
:100698004E2B4F2B702B4208B6004308B700440876
:1006A800B8004508B9000130BA00390DB90CB80CCA
:1006B800B70CB60CBA0B592B3908C5003808C4005A
:1006C8003708C3003608C2000130C6070318C70A36
:1006D8000030C707702B702B4708803AFF00803026
:1006E8007F02031D792BFF304602031C7C2B7D2BD8
:1006F800882B7F3083120313C5008030C40000307C
:10070800C3000030C200BF2B831203134708803A8E
:10071800FF0080307F02031D932B0130460203182F
:10072800962B972BA32B003083120313C5000030A0
:10073800C4000030C3000030C200BB01BF2B8312CD
:1007480003134608B6003608C100FF30C205FF3063
:10075800C3057F30C4050030C505411CB42BB52B3B
:10076800B72BC417B72B4108B6000310360CB700D7
:100778003708C500BF2B3B08B6003608C504450836
:10078800B1004408B0004308AF004208AE00CC2BCB
:1007980008008312031335088039BA003A08C600E6
:1007A8003508BA003A07BB003B08C800B41FDD2B68
:1007B800DE2BE02B4814E02B48080319E42BE52B2B
:1007C800F62B480A031DE92BEA2BF32B0030B50062
:1007D8000030B4000030B3000030B200F32BB4177F
:1007E800B501FF2B0030B5000030B4000030B30075
:1007F8000030B200FF2B39088039BA003A08C70028
:10080800470846060319092C0A2C0C2C46170C2CF1
:100818003908BA003A07BB003B08C700B81F152CB7
:10082800162C182C4714182C470803191C2C1D2C9F
:100838002E2C470A031D212C222C2B2C0030B9000A
:100848000030B8000030B7000030B6002B2CB817C5
:10085800B901362C0030B9000030B8000030B700BC
:100868000030B6004808470203183B2C3C2C822C69
:10087800461F3F2C402C452C8030BA003A08C6064B
:10088800452C4808BA003A08C9004708BA003A088F
:10089800C8004908BA003A08C7003208BA003A083E
:1008A800C9003608BA003A08B2004908BA003A083E
:1008B800B6003308BA003A08C9003708BA003A083F
:1008C800B3004908BA003A08B7003408BA003A0831
:1008D800C9003808BA003A08B4004908BA003A080A
:1008E800B8003508BA003A08C9003908BA003A0809
:1008F800B5004908BA003A08B900822CC90148086D
:10090800BA00BB01BA09BB09BA0A0319BB0A4708EE
:100918003A07BC003B0803183B0ABD003D08803A73
:10092800FF0080307F02031D9B2C1A303C02031C01
:100938009E2C9F2CE02C83120313350834043304B7
:100948003204031DA82CAA2C0130AB2C0030BA00AD
:100958003A08C9000030B5000030B4000030B300D8
:100968000030B2004708BA003A08C800E92CE02C69
:10097800491CBF2CC02CC92C4908BA0003103A0CDA
:100988000138BB003B08C900CC2C0310C90CCC2C87
:10099800321CCF2CD02CD22CC917D22C0130BA0043
:1009A800350DB50CB40CB30CB20CBA0BD42C013009
:1009B800BA003A08C807E02C831203134708480214
:1009C800031CE72CE82CBC2CE92C461BEC2CED2C4A
:1009D8003C2D4808031DF12CF22CFC2C0030B500EE
:1009E8000030B4000030B3000030B200882E882EEA
:1009F8003608B207370803110318013E0319052DFD
:100A0800B307380803110318013E03190C2DB40766
:100A1800390803110318013E0319132DB507351CB6
:100A2800162D172D052E491C1A2D1B2D242D49086E
:100A3800BA0003103A0C0138BB003B08C900272D47
:100A48000310C90C272D321C2A2D2B2D2D2DC9172B
:100A58002D2D0130BA00350DB50CB40CB30CB20C09
:100A6800BA0B2F2D0130BA003A08C807052E052EFB
:100A78003508803AFF003908803A7F02031D4E2D61
:100A880038083402031D4E2D37083302031D4E2D3E
:100A9800360832020318512D522DB82DFF30BA00F6
:100AA800FF30BB00FF30BC00FF30BD003608BE0081
:100AB8003708BF003808C0003908C1003209C20031
:100AC8003309C3003409C4003509C500C20A031933
:100AD800C30A0319C40A0319C50A4208BE07430812
:100AE8000318430F782D792DBF0744080318440FC6
:100AF8007E2D7F2DC00745080318450AC1073E080B
:100B0800BA073F0803183F0F8A2D8B2DBB074008F3
:100B18000318400F902D912DBC0741080318410A76
:100B2800BD073D08B5003C08B4003B08B3003A08CF
:100B3800B2008030BA003A08C606C909C90A49088D
:100B4800031DA72DA82DC62D0130B20700300318AC
:100B58000130B307003003180130B4070030031820
:100B68000130B507C62DC62D3608B2023708031C5A
:100B7800370FB3023808031C380FB4023908031CB6
:100B8800390FB5023508340433043204031DCD2D62
:100B9800CE2DFF2D4908031DD22DD32DFF2D00305A
:100BA800B5000030B4000030B3000030B200882E29
:100BB800882EFF2D0130BA000310B20DB30DB40D0D
:100BC800B50DBA0BE02DC91FEA2DEB2DEC2D321413
:100BD800491CEF2DF02DF32D0314C90DF62D03102C
:100BE800C90DF62D48080319FA2DFB2DFF2D0130EC
:100BF800C802FF2DFF2DB41F022E032EDE2D052E59
:100C0800052EC701C91F092E0A2E1C2E49087F3937
:100C180003190F2E102E132EC701C70A1C2E321CC3
:100C2800162E172E1C2EC701C70A1C2E1C2E1C2E72
:100C380047080319202E212E572E0130B207003005
:100C480003180130B307003003180130B40700302F
:100C580003180130B507351C322E332E572E3208B3
:100C6800BA003308BB003408BC003508BD000130A9
:100C7800BE003D0DBD0CBC0CBB0CBA0CBE0B3D2E12
:100C88003D08B5003C08B4003B08B3003A08B20080
:100C9800480A0319502E512E572E0130BA003A082F
:100CA800C807572E572E480A03195B2E5C2E622E52
:100CB8004808031D602E612E722E622E0030B5008A
:100CC8000030B4000030B3000030B2004808031D03
:100CD8006E2E6F2E722EC601722E722E481C752E25
:100CE800762E782EB4177C2E7F30BA003A08B405D9
:100CF8004808BA0003103A0CBB003B08B500C61FF1
:100D0800862E872E882EB5170800750803198D2E94
:100D18008E2ED32F83120313E601E701EC010A306C
:100D28006C02031C982E992E9B2EB32EB32E6C08A2
:100D3800A03E840083130008E200E3016208E6078E
:100D48000318E70A6308E7070130E2006208EC07C6
:100D58000A306C02031CB12EB22E9B2EB32E4130EA
:100D6800CB002030CA000030C9000030C800660837
:100D7800A0006708A100A201A30100300A128A1589
:100D88008D200A128A11831203132308CF00220828
:100D9800CE002108CD002008CC000A128A15F725BC
:100DA8000A128A11831203134B08EB004A08EA005F
:100DB8004908E9004808E8004030CD00A030CC00E0
:100DC8000030CB000030CA006B08B5006A08B400D8
:100DD8006908B3006808B2007808E200E301E4019A
:100DE800E5016508A3006408A2006308A100620881
:100DF800A00000300A128A158D200A128A11831267
:100E080003132308B1002208B0002108AF0020080E
:100E1800AE000A168A1554230A128A118312031384
:100E28003108B9003008B8002F08B7002E08B600FE
:100E38000A128A11CD230A128A1183120313350864
:100E4800D1003408D0003308CF003208CE000A168B
:100E58008A113D270A128A110318332F342F4F2F76
:100E680001300A168A1542260A128A1100300A161B
:100E78008A11CB200A128A1100300A168A158B268D
:100E88000A128A11013083120313E20062088316E2
:100E98000313BB00D32F403083120313CD00A030BF
:100EA800CC000030CB000030CA006B08B1006A08E3
:100EB800B0006908AF006808AE000A168A15542306
:100EC8000A128A11831203133108B5003008B400DE
:100ED8002F08B3002E08B2007808E200E301E4010D
:100EE800E5016508A3006408A2006308A100620880
:100EF800A00000300A128A158D200A128A11831266
:100F080003132308B9002208B8002108B7002008F5
:100F1800B6000A128A11CD230A128A11831203130A
:100F28003508D1003408D0003308CF003208CE008D
:100F38000A168A113D270A128A110318A42FA52F11
:100F4800B52F00300A168A1542260A128A11013076
:100F58000A168A11CB200A128A1183160313BB01C1
:100F6800D32F00300A168A11CB200A128A110130B9
:100F78000A168A11CB200A128A1100300A168A1121
:100F88001B210A128A11023083120313E20062083D
:100F980083160313BB00D32FD32FD32FD32F0800CF
:100FA80083120313A800A401A5012008A200A3012D
:100FB8002208A6002308A700E12F281CE42FE52F0C
:100FC800EB2F2608A4070318A50A2708A507013050
:100FD8000310A60DA70DFF3E031DEC2F0310A80C50
:100FE8002808031DF82FF92FE12FFA2F2508A10053
:100FF8002408A000FF2F080064008001840A04066A
:10100800031900340406012883120313A900831668
:101018000313420883120313AA0083160313430819
:1010280083120313AB0083160313440883120313BC
:10103800AC005C280230A7002708AA000530A700EA
:101048002708AC007B280430A7002708AA00053031
:10105800A7002708AC007B280830A7002708AA00AB
:101068000530A7002708AC007B282030A7002708F8
:10107800AA000530A7002708AC007B28AA01AA0A05
:101088000930A7002708AC007B280230A7002708F2
:10109800AA000930A7002708AC007B280430A70065
:1010A8002708AA000930A7002708AC007B287B285E
:1010B8002908A700A8012808003A031964287B28F2
:1010C8002708083A03191E28183A03192728083A46
:1010D80003193028383A03193928083A03194228DD
:1010E800183A03194928083A031952287B282A3044
:1010F8000A168A116B210A128A15C7308312031344
:10110800A70027089F052908A70027089F048C28FF
:10111800080083120313A8002808031994289528A7
:10112800A928A31F98289928A9282009AA002109D5
:10113800AB002209AC002309AD00AA0A0319AB0AC7
:101148000319AC0A0319AD0AB1282308AD00220817
:10115800AC002108AB002008AA00230822042104BF
:101168002004031DB828B928C3280030A300003084
:10117800A2000030A1000030A0005029502996306C
:10118800A4002408A900D6280130A4002408A9072F
:1011980001300310AD0CAC0CAB0CAA0CFF3E031DC8
:1011A800CD28D628FE302D05031DDB28DC28C828CD
:1011B800F928F9280130A4002408A9070130AA0752
:1011C800003003180130AB07003003180130AC07BA
:1011D800003003180130AD0701300310AD0CAC0C22
:1011E800AB0CAA0CFF3E031DF128FF302D05031D93
:1011F800FE28FF28DE280D290D290130A90201301B
:10120800A4000310AA0DAB0DAC0DAD0DA40B052960
:101218000D29AC1B1029112918290230290203189D
:10122800162917290129182929181B291C292429B5
:10123800FF30AA05FF30AB057F30AC05FF30AD05A8
:101248000310A90C2908A400A501A601A7011830BC
:101258000310A40DA50DA60DA70DFF3E031D2C29F7
:101268002408AA042508AB042608AC042708AD0402
:1012780028080319402941294729A31F442945293A
:101288004729AD1747292D08A3002C08A2002B08D1
:10129800A1002A08A0005029080077080319552939
:1012A80056295E297708FF3E0A168A11BD220A12BE
:1012B8008A15652901300A168A11BD220A128A1573
:1012C800652983120313B00107303002031C6D290E
:1012D8006E297029072A072A7708133E84000A1600
:1012E8008A1100200A128A15413A031D7C297D299A
:1012F800B3293008013E84000A168A1100200A1218
:101308008A15AD002D08A4007708B53E8400831324
:1013180000081F3E84000A168A1100200A128A1546
:10132800AE00300A99290310AE0CFF3E031D972921
:101338002E1C9F29A1290130A2290030AF002F08B7
:10134800A5003008083E84000A168A1100200A12F7
:101358008A150A168A15BE240A128A15FA297708E8
:10136800133E84000A168A1100200A128A15433A8D
:10137800031DBF29C029FA29831203133008013E2F
:1013880084000A168A1100200A128A15AD002D0859
:10139800A4007708B53E840083130008153E840036
:1013A8000A168A1100200A128A15AE00300ADE29B0
:1013B8000310AE0CFF3E031DDC292E1CE429E62990
:1013C8000130E7290030AF002F08A5003008083E9B
:1013D80084000A168A1100200A128A150A168A152C
:1013E800BE240A128A15FA29FA29FA290130831229
:1013F8000313AD002D08B00707303002031C052A7F
:10140800062A7029072A831603134708031D0D2A85
:101418000E2A1C2A77080A168A1167220A128A15C8
:10142800013083120313AD002D08F7071C2A1C2A6C
:1014380002307706031D212A222A252AF701252AA8
:10144800252A080000300A168A1586230A128A15EA
:101458002D2A831603133D03031D332A342A2D2A0C
:10146800BD01F60104307602031C3B2A3C2A3E2AC1
:101478002D2A2D2A0E30CB004B0883120313A0000F
:1014880076080A168A15FA230A128A15093E903E2A
:10149800840083170003031D522A532A062B0E309B
:1014A80083160313CB004B0883120313A00076089E
:1014B8000A168A15FA230A128A15013E903E8400FC
:1014C8008317000883160313CC00840A0008CD0094
:1014D800840A0008CE00840A0008CF004F084E0492
:1014E8004D044C04031D792A7A2ADF2A0E30CB00DA
:1014F8004B0883120313A00076080A168A15FA23EC
:101508000A128A15053E903E840083170008831648
:101518000313CC00840A0008CD00840A0008CE001A
:10152800840A0008CF000E30D0005008831203133D
:10153800A00076080A168A15FA230A128A15013EAF
:10154800903E8400831603134C0883178000840A96
:101558004D088000840A4E088000840A4F088000E5
:101568000E30CB004B0883120313A00076080A162E
:101578008A15FA230A128A15903E840083170008F8
:1015880084000A168A1100200A128A1584000A1695
:101598008A1100200A128A1583160313CC004C08FE
:1015A80083120313EF006F080A128A113B200A12F4
:1015B8008A15DF2ADF2A0E3083160313CB004B0867
:1015C80083120313A00076080A168A15FA230A1252
:1015D8008A15013E903E8400013083178002840AF8
:1015E8000030031C01308002840A0030031C0130E3
:1015F8008002840A0030031C013080020330840218
:10160800062B062B013083160313CB004B08F60775
:1016180004307602031C112B122B3E2A2D2A2D2A68
:101628002D2A2D2A2D2A080083120313EE010430D7
:101638006E02031C202B212B232B2A2C2A2C05304D
:1016480083160313CB004B0883120313A0006E0804
:101658000A168A15FA230A128A153B3E83160313C3
:10166800CC000E30CD004D0883120313A0006E0885
:101678000A168A15FA230A128A15903E84008316E0
:1016880003134C08831780000E30CB004B088312DD
:101698000313A0006E080A168A15FA230A128A157F
:1016A800903E840083170008013E84000A168A11C0
:1016B80000200A128A1583160313CC000A168A1111
:1016C80000200A128A15CD000A168A1100200A1273
:1016D8008A15CE000A168A1100200A128A15CF0030
:1016E8000E30D000500883120313A0006E080A16AB
:1016F8008A15FA230A128A15013E903E8400831641
:1017080003134C0883178000840A4D088000840A5C
:101718004E088000840A4F088000003083120313AB
:10172800A7000030A6000030A5000530A4000E3048
:1017380083160313CB004B0883120313A0006E0813
:101748000A168A15FA230A128A15903E840083170E
:10175800000884000A168A1100200A128A15013E20
:1017680084000A168A1100200A128A1583120313AC
:10177800A8000A168A1100200A128A15A9000A165A
:101788008A1100200A128A15AA000A168A11002056
:101798000A128A15AB000A168A113C240A128A1505
:1017A80083120313240883160313CC008312031334
:1017B800250883160313CD00831203132608831606
:1017C8000313CE0083120313270883160313CF00D5
:1017D8000E30D000500883120313A0006E080A16BA
:1017E8008A15FA230A128A15053E903E840083164C
:1017F80003134C0883178000840A4D088000840A6C
:101808004E088000840A4F0880000E30CB004B0839
:1018180083120313A0006E080A168A15FA230A1207
:101828008A15093E903E840083178001800A0130A2
:1018380083160313CB004B0883120313EE070430FF
:101848006E02031C282C292C232B2A2C0A168A15F5
:10185800F4220A128A15493083120313E500F43082
:10186800E4002430E3000030E2000030E9000030FA
:10187800E8001330E7008830E6000A168A111523BD
:101888000A128A1501300A168A15FC220A128A15CC
:101898000A168A15E0220A128A150A168A11692080
:1018A8000A128A15572C0800831603134A08831254
:1018B8000313B300330883160313BA0049088312CD
:1018C8000313B300330883160313B90048088312BF
:1018D8000313B300330883160313B800CA30831206
:1018E8000313B3003308A00000300A168A154523F5
:1018F8000A128A15C93083120313B3003308A000F3
:1019080002300A168A1545230A128A15C83083122E
:101918000313B3003308A00001300A168A154523C3
:101928000A128A15831603134A03031D9C2C9D2C47
:10193800E32C3A08031DA12CA22CE32C7508031DE7
:10194800A62CA72CBA2C023083120313B300330839
:10195800F5000030A300A4007830B3003308A500D8
:101968000A168A1112220A128A15E32CF501003090
:101978000A168A11CB200A128A1501300A168A1112
:10198800CB200A128A1500300A168A111B210A1266
:101998008A1501300A168A1507230A128A1500309B
:1019A80083120313A300A4007808B3003308A5002A
:1019B8000A168A1577250A128A15E32CE32C831652
:1019C80003134903031DE92CEA2C6D2D3908031D67
:1019D800EE2CEF2C6D2D102D102D01308312B3003D
:1019E8003308F50083160313BC01222D053083123A
:1019F800B3003308F8074C307802031C042D052D7A
:101A08000B2D4B30B3003308F8000B2D0B2D83162C
:101A18000313BC01222D222D750883120313B30072
:101A2800B4013408003A03191A2D222D3308013A5B
:101A38000319FA2C033A0319F12C222D0A308312C8
:101A4800A9000030AA007808B300B4013308AB003D
:101A58003408AC000A168A1172230A128A158312F6
:101A680003132908B5003508B00001300A168A1595
:101A78002A230A128A150A3083120313A900003098
:101A8800AA000A30A0000030A1007808B300B40111
:101A98003308A2003408A3000A168A111B250A126B
:101AA8008A15831203132108AC002008AB000A161C
:101AB8008A1172230A128A15831203132908B500A2
:101AC8003508B00000300A168A152A230A128A152A
:101AD8006D2D831603134803031D732D742DF62DE6
:101AE8003808031D782D792DF62D982D982D013065
:101AF8008312B3003308F50083160313BC01AA2D23
:101B08000530F8022330780203188B2D8C2D932D85
:101B180023308312B3003308F800932D932D8316D6
:101B28000313BC01AA2DAA2D750883120313B30051
:101B3800B4013408003A0319A22DAA2D3308013A3A
:101B48000319842D033A03197B2DAA2D0A30831219
:101B5800A9000030AA007808B300B4013308AB002C
:101B68003408AC000A168A1172230A128A158312E5
:101B780003132908B5003508B00001300A168A1584
:101B88002A230A128A150A3083120313A900003087
:101B9800AA000A30A0000030A1007808B300B40100
:101BA8003308A2003408A3000A168A111B250A125A
:101BB8008A15831203132108AC002008AB000A160B
:101BC8008A1172230A128A15831203132908B50091
:101BD8003508B00000300A168A152A230A128A1519
:101BE800F62DF62D0800831203134F088039D00014
:101BF8005008D9004F08D0005007D1005108E00024
:101C0800CE1F072E082E0A2E60140A2E600803190C
:101C18000E2E0F2E202E600A031D132E142E1D2E9D
:101C28000030CF000030CE000030CD000030CC00B6
:101C38001D2ECE17CF01292E0030CF000030CE0048
:101C48000030CD000030CC00292E4B088039D00060
:101C58005008D9064B08D0005007D1005108E100C0
:101C6800CA1F372E382E3A2E61143A2E61080319EE
:101C78003E2E3F2E502E610A031D432E442E4D2E1C
:101C88000030CB000030CA000030C9000030C80066
:101C98004D2ECA17CB01582E0030CB000030CA0099
:101CA8000030C9000030C8004B084A044904480401
:101CB800031D5F2E602E7A2E0030CF000030CE003C
:101CC8000030CD000030CC008030CE047F30CF040F
:101CD8005908D0005008CF044F08CB004E08CA005E
:101CE8004D08C9004C08C800FF2FFF2F6008031DCE
:101CF8007E2E7F2E912E0030CF000030CE00003097
:101D0800CD000030CC004F08CB004E08CA004D086B
:101D1800C9004C08C800FF2FFF2F6108D000D1016F
:101D2800D009D109D00A0319D10A60085007D20096
:101D380051080318510AD30052087F3EDA005308AD
:101D48000318013E003EDB004F08D8004E08D700BC
:101D58004D08D6004C08D5000030CF000030CE002A
:101D68000030CD000030CC000030DF000030DE0055
:101D78000030DD000030DC00E101102F610803199C
:101D8800C62EC72EE92E0130D0000310D50DD60D72
:101D9800D70DD80DD00BC92E0130D0000310CC0DB3
:101DA800CD0DCE0DCF0DD00BD22EDF1FDC2EDD2EAC
:101DB800DF2E4C14DF2E0130D0000310DC0DDD0DBA
:101DC800DE0DDF0DD00BE12EE92E4B085802031D66
:101DD800F72E4A085702031DF72E49085602031D1D
:101DE800F72E48085502031CFA2EFB2E0B2F5F17FF
:101DF8004808D5024908031C490FD6024A08031CA3
:101E08004A0FD7024B08031C4B0FD8020B2F013087
:101E1800D0005008E107102F1A306102031C152F5B
:101E2800162FC22E172F58085704560455040319A5
:101E38001E2F1F2F412F5C14412F412F0130D0003E
:101E48000310CC0DCD0DCE0DCF0DD00B242FDF1FE1
:101E58002E2F2F2F312F4C14312F0130D00003108B
:101E6800DC0DDD0DDE0DDF0DD00B332FFF30DA0773
:101E78000318DB0AFF30DB07412FCE1F442F452F05
:101E8800222F462FE101DF1F4A2F4B2F6B2FFF30E8
:101E98005C05D000FF305D05D100FF305E05D20043
:101EA8007F305F05D30053085204510450040319CE
:101EB8005E2F5F2F622FE101E10A6B2F4C1C652F0B
:101EC800662F6B2FE101E10A6B2F6B2F6B2F6108D7
:101ED80003196F2F702FA32F0130CC070030031880
:101EE8000130CD07003003180130CE070030031849
:101EF8000130CF074F1C812F822FA32F4C08D00011
:101F08004D08D1004E08D2004F08D3000130D4004C
:101F1800530DD30CD20CD10CD00CD40B8C2F5308EE
:101F2800CF005208CE005108CD005008CC00013037
:101F3800DA070318DB0A0030DB07A32FA32F5B089F
:101F4800803AFF0080307F02031DAC2FFF305A0219
:101F5800031CAF2FB02FBF2FFF3083120313DA00FB
:101F68000030DB000030CF000030CE000030CD0064
:101F78000030CC00BF2F831203135B08803AFF00A8
:101F880080307F02031DCA2F01305A020318CD2F5B
:101F9800CE2FDB2F83120313DA01DB010030CF00D1
:101FA8000030CE000030CD000030CC00D9018312C3
:101FB80003135A08D0005008E000601CE42FE52FF6
:101FC800E72FCE17EB2F7F30D0005008CE056008E2
:101FD800D0000310500CD1005108CF005908D00090
:101FE8005008CF044F08CB004E08CA004D08C9005E
:101FF8004C08C800FF2F080010308A000408840A23
:102008008207003401340234043408341034203494
:1020180040340834083408340834083408340834A0
:10202800103420340534053441344134C034F93493
:10203800A434B034993492348234F83480349034EF
:102048003F3406345B344F3466346D347D340734A2
:102058007F346F34203406340134103406340134AC
:102068000834063401342034073400340434073487
:1020780000348034063400345934003400340034D9
:102088000034543401340034003400344F34013403
:102098000034003400345E34023400340034003438
:1020A800033419340034003400340934053400345E
:1020B800003400340C340534003400340034063461
:0820C800193400340034003427
:1020D200C03083120313A00020088B04831603135D
:1020E2000C15F03083120313A000200897040B3064
:1020F200A000200897047D28080083120313A6017C
:10210200A70120082104031987288828C528A501CA
:10211200A50A972801300310A00DA10DFF3E031D53
:102122008C280130A4002408A5079728A11F9A280B
:102132009B288B289D289D2801300310A60DA70DF2
:10214200FF3E031D9E2821082302031DAA28200802
:102152002202031CAD28AE28B6282008A2022108BC
:10216200031CA303A3022614B62801300310A10CFA
:10217200A00CFF3E031DB7280130A502031DC22893
:10218200C3289D28C528C5282708A1002608A00025
:10219200CA28080083120313B0000330AB002B08D7
:1021A200A00030080A168A15FA230A168A11323E4E
:1021B20084000A168A1100200A168A118312031358
:1021C200AC002C08A4000330AD002D08A00030089C
:1021D2000A168A15FA230A168A11023E323E840032
:1021E2000A168A1100200A168A11003A0319FA28DF
:1021F200FC280130FD28003083120313AE002E08A4
:10220200A5000330AF002F08A00030080A168A1577
:10221200FA230A168A11013E323E84000A168A11F6
:1022220000200A168A110A168A15BE240A168A1175
:102232001A29080083120313B0000330AB002B08E5
:10224200A00030080A168A15FA230A168A11383EA7
:1022520084000A168A1100200A168A1183120313B7
:10226200AC002C08A4000330AD002D08A0003008FB
:102272000A168A15FA230A168A11023E383E84008B
:102282000A168A1100200A168A11003A03194A29ED
:102292004C2901304D29003083120313AE002E0861
:1022A200A5000330AF002F08A00030080A168A15D7
:1022B200FA230A168A11013E383E84000A168A1150
:1022C20000200A168A110A168A15BE240A168A11D5
:1022D2006A29080083120313A600A501A50AAA29E8
:1022E2002608840083130009A0002608023E840009
:1022F2000008A100A2012108803EA30022080318C1
:10230200013E003EA400230884008317241C83138B
:1023120020088005A501BD29260884008313000832
:10232200A0002608023E84000008A100A2012108A4
:10233200803EA30022080318013E003EA4002308A9
:1023420084008317241C831320088004A501BD295F
:10235200BD29260A840083130008A000A1012108D8
:10236200003A0319B529BD292008003A0319712939
:10237200013A03198D29BD29080083120313A9010B
:1023820003302902031CC629C729C929112A112A87
:10239200AB01AB0A0330A7002708A00029080A16E0
:1023A2008A15FA230A168A11293E84000A168A110E
:1023B20000200A168A1183120313A8002808AA0013
:1023C2000330A7002708A00029080A168A15FA2355
:1023D2000A168A11013E293E84000A168A1100203B
:1023E2000A168A1183120313A8002808AC002A30A7
:1023F2000A168A116B210A168A11831203132908FD
:10240200B03E840083138001800A0130A7002708B0
:10241200A90703302902031C0F2A102AC929112AED
:1024220008000A168A159A230A168A11182AA03059
:1024320083120313A6002608A00027300A168A1565
:1024420034250A168A1183120313270803192A2A2C
:102452002B2A182A2C2A2408A6002608A000273096
:102462000A168A1534250A168A11831203132308C1
:10247200A6002608A00027300A168A1534250A1657
:102482008A110A168A159A230A168A11A130831212
:102492000313A6002608A00027300A168A15342541
:1024A2000A168A118312031325080A168A15F224C2
:1024B2000A168A110A168A1530240A168A110A1671
:1024C2008A15B2230A168A11662A08008312031398
:1024D200AC002C08133E84000A168A1100200A164A
:1024E2008A11413A031D762A772A912A2C080F3E37
:1024F20084000A168A1100200A168A11AB002B08E2
:10250200A400A5012C08113E84000A168A1100209D
:102512000A168A110A168A15BE240A168A11BC2ABC
:10252200831203132C08133E84000A168A1100201A
:102532000A168A11433A031D9F2AA02ABC2A2C0894
:102542000F3E84000A168A1100200A168A11AB0077
:102552002B08A400A5012C08113E84000A168A113A
:1025620000200A168A110A168A15BE240A168A1132
:10257200BC2ABC2ABC2A080083120313AC002C0814
:10258200133E84000A168A1100200A168A11413A63
:10259200031DCC2ACD2AE82A2C080F3E84000A16F5
:1025A2008A1100200A168A11AB002B08A400A5018B
:1025B200A50A2C08113E84000A168A1100200A1668
:1025C2008A110A168A15BE240A168A11142B83123E
:1025D20003132C08133E84000A168A1100200A16DF
:1025E2008A11433A031DF62AF72A142B2C080F3EB0
:1025F20084000A168A1100200A168A11AB002B08E1
:10260200A400A501A50A2C08113E84000A168A110D
:1026120000200A168A110A168A15BE240A168A1181
:10262200142B142B142B0800493083120313CB00F4
:102632007430CA002430C9000030C8006508B100F7
:102642006408B0006308AF006208AE006908A30026
:102652006808A2006708A1006608A00000300A12FC
:102662008A158D200A168A11831203132308B500D6
:102672002208B4002108B3002008B2000A128A110D
:1026820058200A168A11831203133108CF0030082A
:10269200CE002F08CD002E08CC000A128A15F7258D
:1026A2000A168A11831203134B08ED004A08EC0044
:1026B2004908EB004808EA006D08A3006C08A20074
:1026C2006B08A1006A08A0000A168A11A1260A1640
:1026D2008A11831203132108960020089500712B9A
:1026E200080083120313AF01AC1F782B792B812BC7
:1026F200AB09AC09AB0A0319AC0AAF01AF0A812BD3
:10270200AA1F842B852B8B2BA909AA09A90A0319B5
:10271200AA0A8B2B29082A040319902B912BC62B6A
:10272200AE01AE0AA02B01300310A90DAA0DFF3E87
:10273200031D952B0130AD002D08AE07A02BAA1F5B
:10274200A32BA42B942BA62BA62B2A082C02031D09
:10275200AC2B29082B02031CAF2BB02BB72B29085B
:10276200AB022A08031CAC03AC02B72B01300310E6
:10277200AA0CA90CFF3E031DB82B0130AE02031DAB
:10278200C32BC42BA62BC62BC62B2F080319CA2B6F
:10279200CB2BD12BAB09AC09AB0A0319AC0AD12B59
:1027A2002C08AA002B08A900D62B08007F300A1695
:1027B2008A1563230A168A110A168A1568270A16C9
:1027C2008A1100300A168A111B210A168A110A166A
:1027D2008A15B3270A168A1100300A168A11CB20ED
:1027E2000A168A1101300A168A11CB200A168A119A
:1027F2000A168A11BE210A168A110A168A11AB24F8
:102802000A168A1101300A168A1507230A168A1136
:102812000A168A1512230A168A1110300A128A150C
:1028220008200A168A110A168A15ED220A168A113A
:10283200003083120313A300A4003C30B20032081C
:10284200A5000A168A1577250A168A110230831204
:102852000313B200320883160313BB003C30831209
:102862000313B2003208F800F5010A168A15CA23CA
:102872000A168A110800003083120313B0000030D8
:10288200AF000030AE000030AD002708260425045A
:10289200240403194D2C4E2CA12CB101B10A5F2C3A
:1028A2000130AC000310A40DA50DA60DA70DAC0BB5
:1028B200532C0130AC002C08B1075F2CA71F622CEF
:1028C200632C512C652C652C0130AC000310AD0D2E
:1028D200AE0DAF0DB00DAC0B672C27082B02031DFC
:1028E2007C2C26082A02031D7C2C25082902031DA4
:1028F2007C2C24082802031C7F2C802C902C24087A
:10290200A8022508031C250FA9022608031C260F6E
:10291200AA022708031C270FAB022D14902C0130AA
:102922000310A70CA60CA50CA40CFF3E031D912CB2
:102932000130B102031D9E2C9F2C652CA12CA12CD1
:102942003008A7002F08A6002E08A5002D08A40015
:10295200AA2C080083120313AF01B1010730310220
:10296200031CB42CB52CB72CE02CE02C3108013E12
:1029720084000A168A1100200A168A11AD002D0859
:10298200AE003108083E84000A168A1100200A1699
:102992008A11AD002D08B0002E300A168A116B2163
:1029A2000A168A11013083120313AD002D08B107F4
:1029B20007303102031CDE2CDF2CB72CE02CB101D6
:1029C20002303102031CE62CE72CE92C1A2D1A2DB9
:1029D20031080F3E84000A168A1100200A168A1155
:1029E200AD002D08AE003108113E84000A168A118E
:1029F20000200A168A11AD002D08B0002E300A16EA
:102A02008A116B210A168A118312031331080A16DE
:102A12008A11BD220A168A11013083120313AD00F6
:102A22002D08B10702303102031C182D192DE92C93
:102A32001A2D080083120313A601A11F212D222D96
:102A42002A2DA009A109A00A0319A10AA601A60A12
:102A52002A2DA31F2D2D2E2D382DA209A309A20A3E
:102A62000319A30A0130A4002408A606382DA701E1
:102A7200A8012008210403193F2D402D7D2DA50119
:102A8200A50A4F2D01300310A00DA10DFF3E031D1D
:102A9200442D0130A4002408A5074F2DA11F522D5B
:102AA200532D432D552D552D01300310A70DA80D83
:102AB200FF3E031D562D21082302031D622D20080F
:102AC2002202031C652D662D6E2D2008A20221080C
:102AD200031CA303A30227146E2D01300310A10CC3
:102AE200A00CFF3E031D6F2D0130A502031D7A2DA0
:102AF2007B2D552D7D2D7D2D26080319812D822DAF
:102B0200882DA709A809A70A0319A80A882D280849
:102B1200A1002708A0008D2D080034300A168A155E
:102B2200E2230A168A110130831203130310B50C33
:102B3200B40CFF3E031D972D3408B3008316031314
:102B42003708A03E840083120313330883138000E6
:102B52000130B300330883160313B7070A30370670
:102B6200031DB42DB52DB82DB701B82DB82D0230E7
:102B72007506031DBD2DBE2D0B2E0A3083120313C5
:102B8200A8000030A9003508AB003408AA000A16D4
:102B92008A15BA250A168A11831203132808B3006C
:102BA2003308B00001300A168A152A230A168A1140
:102BB2000A3083120313A8000030A9000A30A000D3
:102BC2000030A1003508A3003408A2000A168A11B9
:102BD2007E200A168A11831203132108AB002008F3
:102BE200AA000A168A15BA250A168A118312031335
:102BF2002808B3003308B00000300A168A152A23C9
:102C02000A168A1100300A168A1507230A168A1133
:102C12000B2E0B2E080083120313B0010330300277
:102C2200031C142E152E172EA02EA02E0330AA0040
:102C32002A08A00030080A168A15FA230A168A11F1
:102C4200293E84000A168A1100200A168A1183126C
:102C52000313AB002B08A4002E30AC002C08A500F7
:102C62000330AD002D08A00030080A168A15FA2399
:102C72000A168A11013E293E84000A168A11002092
:102C82000A168A110A168A1515240A168A110330A1
:102C920083120313AA002A08A00030080A168A1514
:102CA200FA230A168A11023E293E84000A168A1164
:102CB20000200A168A11831203132E06AB002B087A
:102CC200AF003008AD3E8400831300082F06031DB9
:102CD2006B2E6C2E742E0130AA003008AA3E84009E
:102CE2002A088007782E3008AA3E84008001300826
:102CF200AA3E840005300006031D802E812E8E2EF2
:102D02002F08AA003008B03E84002A08800030084C
:102D1200AA3E840080018E2E8E2E2F08AA00300833
:102D2200AD3E84002A0880000130AA002A08B007BC
:102D320003303002031C9E2E9F2E172EA02E080059
:102D4200831203132008A4002108A5002208A6006C
:102D52002308A7000310260D270DA8002808AA00A3
:102D62002A08031DB52EB62EC02E0030A300003057
:102D7200A2000030A1000030A0003C2F3C2F200810
:102D8200A4002108A5002208A6002308A7001F30DE
:102D92000310A70CA60CA50CA40CFF3E031DC92E04
:102DA2002408A8002808A900A217FF30A005FF30B8
:102DB200A105FF30A2050030A3059630AA02AA1F82
:102DC200E32EE42E092F2A08803A973E0318EA2EB2
:102DD200EB2EF62E0030A3000030A2000030A1003E
:102DE2000030A0003C2F3C2FF62E01300310A30C24
:102DF200A20CA10CA00CFF3E031DF72E0130A40073
:102E02002408AA07031D062F072FF62E2C2F2C2F7E
:102E120020302A02031C0E2F0F2F252F0030A30073
:102E22000030A2000030A1000030A0003C2F3C2F57
:102E3200252F0130A4000310A00DA10DA20DA30D9A
:102E4200A40B1C2F0130AA022A08031D292F2A2FA6
:102E52001A2F2C2F2C2F29080319302F312F3C2FFA
:102E6200A009A109A209A309A00A0319A10A031929
:102E7200A20A0319A30A08000030831203134A05A9
:102E8200D20000304B05D30080304C05D4007F3097
:102E92004D05D5005508540453045204031D522F06
:102EA200532F5B2F0030CD000030CC000030CB0020
:102EB2000030CA0000304E05D20000304F05D3006A
:102EC20080305005D4007F305105D5005508540498
:102ED20053045204031D6E2F6F2F782F0030D10040
:102EE2000030D0000030CF000030CE00782FCD1F50
:102EF2007B2F7C2FAE2F0030D2000030D300003069
:102F0200D4008030D5004A09D6004B09D7004C09BD
:102F1200D8004D09D900D60A0319D70A0319D80ACD
:102F22000319D90A5608D20757080318570F9A2FC0
:102F32009B2FD30758080318580FA02FA12FD4078F
:102F420059080318590AD5075508CD005408CC0072
:102F52005308CB005208CA00AE2FD11FB12FB22F97
:102F6200E42F0030D2000030D3000030D400803093
:102F7200D5004E09D6004F09D7005009D800510993
:102F8200D900D60A0319D70A0319D80A0319D90A8C
:102F92005608D20757080318570FD02FD12FD3073F
:102FA20058080318580FD62FD72FD40759080318DB
:102FB200590AD5075508D1005408D0005308CF004C
:102FC2005208CE00E42F8030CD068030D106510861
:102FD2004D02031DF62F50084C02031DF62F4F0819
:102FE2004B02031DF62F4E084A020318F92FFA2F3F
:0E2FF200FC2F0310FF2F0314FF2FFF2F0800EA
:1035C000831203138E018F01E52A08000130F000F9
:1035D000700883160313BD0008000A168A15932489
:1035E0000A168A15F32A0800FE3083120313A0007E
:1035F00020089005FB2A080083120313A10021086C
:10360000A000200883160313BE00062B08008312B7
:103610000313A1002108A000200883160313C7008C
:10362000112B0800831203139F019F0A8030A00012
:103630002008831603139F001D2B08001834003444
:1036400007340134013405340134013401340134C8
:103650000134013483120313B2003008B100320880
:10366000B53E8400310883138000362B08000A120F
:103670008A1518230A168A150A128A1526220A168E
:103680008A15412B0A128A11102883120313A200F3
:103690002208B03E840083130008A10020088400A3
:1036A00021088000532B08008312031331083004D3
:1036B0002F042E0403195D2B5E2B612B8030B10685
:1036C000612B622B080083120313A10083160313DE
:1036D0000116831203132108A00020088316031388
:1036E0008105722B08007E088A007F0882000A1676
:1036F0008A1573230A168A158000840A04087D0639
:1037000003190034FF0A0319FE0A772B83120313EF
:10371000A100FE30A00020089005F830A00020088D
:1037200090052108A000200890048E018F0110143C
:10373000992B08009C2B9C2B1F308316031311051B
:1037400083120313A0008316031314080439831291
:1037500003132004031DAD2BAE2B9C2B83160313E8
:1037600011140800B42BB42B1F308316031311055A
:1037700083120313A0008316031314080439831261
:1037800003132004031DC52BC62BB42B8316031370
:1037900011150800023083120313A4000E30A50097
:1037A0002508A00076080A168A15FA230A168A1533
:1037B000093E903E8400831203132408831780007F
:1037C000E12B080083120313A0001F15E72B1F191C
:1037D000EA2BEB2BE72BEC2B20088400831603133A
:1037E0001E0883138000840A831203131E088000BE
:1037F000F92B080083120313A300A201FF2B231C43
:10380000022C032C082C2008A1002108A207082C58
:103810000310A00D0310A30C2308031D102C112C62
:10382000FF2B122C2208142C080083120313A9006A
:103830002908A600A701260884008317271C8313E4
:10384000000824050319252C272C0130282C0030D2
:10385000A800250884002808831380002F2C080066
:10386000322C322C1F3083160313110583120313DD
:10387000A0008316031314080439831203132004D1
:10388000031D432C442C322C452CEF30A000200883
:10389000831603139105111611164E2C080075039B
:1038A000031D532C542C6E2C0A30831603133C0634
:1038B000031D5B2C5C2C642CBC01023083120313AF
:1038C000A0002008F5006E2C01308312A000200813
:1038D00083160313BC076E2C6E2C6E2C08000C1D77
:1038E000722C732C8A2C831603133E080319792C2F
:1038F0007A2C822C3E080A128A114F200A168A1549
:10390000822C822CFB30F1007108831203138C058A
:103910008A2C8A2C7408FF0073088A00720E8300B8
:10392000FE0E7E0E0900831603133F088312031355
:10393000A80083160313400883120313A9008316FB
:103940000313410883120313AA002830A700270895
:10395000940083160313910194011330831203130F
:10396000A700270883160313930028300A168A112C
:103970006B210A168A150030BD2C08008312031330
:10398000AA00A901A90AE12C2408A6002A08A70078
:10399000A801270884008317281C831326088004A5
:1039A000A901F12C2409A6002A08A700A8012708CC
:1039B00084008317281C831326088005A901F12C95
:1039C000F12C2508A600A7012708003A0319E92CC5
:1039D000F12C2608003A0319C42C013A0319D22C01
:1039E000F12C080083120313A100F72CF72C1F30D1
:1039F00083160313110583120313A0008316031308
:103A000014080439831203132004031D082D092D03
:103A1000F72C8316031391150D2D83128C1D112D78
:103A2000122D0D2D132DF730A00020088C05192D17
:103A3000192D1F3083160313110583120313A000E1
:103A40008316031314080439831203132004031D7F
:103A50002A2D2B2D192D2C2D1308A00021088400B0
:103A600020088000332D080083120313A200392D93
:103A7000392D1F3083160313110583120313A10080
:103A80008316031314080439831203132104031D3E
:103A90004A2D4B2D392D4C2D2008A10021089300D3
:103AA000522D522D1F308316031311058312031359
:103AB000A10083160313140804398312031321048D
:103AC000031D632D642D522D652D83160313111FC5
:103AD0006A2D6C2D01306D2D003083120313A1006F
:103AE00022088400210883138000762D08000A161E
:103AF0008A159A230A168A157D2DA0308312031386
:103B0000A6002608A00027300A168A1534250A16B2
:103B10008A1583120313270803198F2D902D7D2DED
:103B2000912D2408A6002608A00027300A168A1521
:103B300034250A168A15831203132308A6002608C3
:103B4000A00027300A168A1534250A168A15831212
:103B500003132508A6002608A00027300A168A1598
:103B600034250A168A150A168A15B2230A168A15EA
:103B7000B92D080083120313280829040319C12D45
:103B8000C22DF72DAD01AD0AD12D01300310A80DC6
:103B9000A90DFF3E031DC62D0130AC002C08AD075A
:103BA000D12DA91FD42DD52DC52DD72DD72D290821
:103BB0002B02031DDD2D28082A02031CE02DE12D18
:103BC000E82D2808AA022908031CAB03AB02E82D44
:103BD00001300310A90CA80CFF3E031DE92D013094
:103BE000AD02031DF42DF52DD72DF72DF72D2B0844
:103BF000A9002A08A800FC2D08000A128A155824DA
:103C00000A168A150730831603133305831203132C
:103C1000ED00003083160313340583120313EE0006
:103C20006D086E04031D152E162E222E0A168A11FB
:103C30008E250A168A150A128A1189260A168A15ED
:103C4000222E222E14308316031333063404031D50
:103C50002A2E2B2E3B2E0A168A154F240A168A1559
:103C60000A168A151E270A168A1583160313B3012E
:103C7000B4013B2E3B2E0130B3070318B40A0030C9
:103C8000B407080083120313B0000330AB002B0805
:103C9000A00030080A168A15FA230A168A15323E41
:103CA00084000A168A1100200A168A15831203134B
:103CB000AC002C08A4000330AD002D08A000300893
:103CC0000A168A15FA230A168A15023E323E840025
:103CD0000A168A1100200A168A1583120313AE00F1
:103CE0002E08A5000330AF002F08A00030080A16E8
:103CF0008A15FA230A168A15013E323E84000A16F6
:103D00008A1100200A168A150A168A15BE240A1678
:103D10008A158A2E080083120313B0000330AB000B
:103D20002B08A00030080A168A15FA230A168A15ED
:103D3000383E84000A168A1100200A168A1583125A
:103D40000313AC002C08A4000330AD002D08A00024
:103D500030080A168A15FA230A168A15023E383EDA
:103D600084000A168A1100200A168A15831203138A
:103D7000AE002E08A5000330AF002F08A0003008C9
:103D80000A168A15FA230A168A15013E383E84005F
:103D90000A168A1100200A168A150A168A15BE24E8
:103DA0000A168A15D32E080083120313B1000330BC
:103DB000AC002C08A00031080A168A15FA230A164E
:103DC0008A15383E84000A168A1100200A168A15C0
:103DD00083120313AD002D08A4000330AE002E089B
:103DE000A00031080A168A15FA230A168A15023E1F
:103DF000383E84000A168A1100200A168A1583129A
:103E000003132B06AF002F08A5000330B0003008C5
:103E1000A00031080A168A15FA230A168A15013EEF
:103E2000383E84000A168A1100200A168A150A16DE
:103E30008A15BE240A168A151D2F08007508031955
:103E4000222F232F482F831603133B08031D292FEE
:103E50002A2F482F460883120313B2003208AB0002
:103E600000300A168A15D4260A168A1583160313FB
:103E7000460803193C2F3E2F01303F2F003083129C
:103E80000313B200320883160313C600482F482FCD
:103E90007503031D4C2F4D2F672F83160313450801
:103EA0000A168A1507230A168A158316031345086E
:103EB00003195B2F5D2F01305E2F00308312031337
:103EC000B200320883160313C500672F672F08005E
:103ED00083120313AB01A90129080319702F712F55
:103EE000732FB22FB22F0330A7002708A000290894
:103EF0000A168A15FA230A168A15383E84000A160D
:103F00008A1100200A168A1583120313A8002808B4
:103F1000AA000330A7002708A00029080A168A155E
:103F2000FA230A168A15013E383E84000A168A11C1
:103F300000200A168A1583120313A8002808AC0073
:103F40002A300A168A116B210A168A15013083124B
:103F50000313A7002708A90729080319B02FB12FB9
:103F6000732FB22F080083120313AB01A901023093
:103F70002902031CBC2FBD2FBF2FFF2FFF2F0330A3
:103F8000A7002708A00029080A168A15FA230A168E
:103F90008A15323E84000A168A1100200A168A15F4
:103FA00083120313A8002808AA000330A7002708DB
:103FB000A00029080A168A15FA230A168A15013E56
:103FC000323E84000A168A1100200A168A158312CE
:103FD0000313A8002808AC002A300A168A116B21A6
:103FE0000A168A15013083120313A7002708A907B0
:103FF00002302902031CFD2FFE2FBF2FFF2F0800C8
:02400E00723FFF
:00000001FF
